{
  "contractName": "Bulbrary",
  "abi": [
    {
      "constant": true,
      "inputs": [],
      "name": "balance",
      "outputs": [
        {
          "name": "",
          "type": "uint256"
        }
      ],
      "payable": false,
      "stateMutability": "view",
      "type": "function"
    },
    {
      "inputs": [],
      "payable": false,
      "stateMutability": "nonpayable",
      "type": "constructor"
    },
    {
      "payable": true,
      "stateMutability": "payable",
      "type": "fallback"
    },
    {
      "constant": true,
      "inputs": [],
      "name": "getBalance",
      "outputs": [
        {
          "name": "",
          "type": "uint256"
        }
      ],
      "payable": false,
      "stateMutability": "view",
      "type": "function"
    }
  ],
  "bytecode": "0x608060405234801561001057600080fd5b506103e860008190555060d6806100286000396000f3006080604052600436106049576000357c0100000000000000000000000000000000000000000000000000000000900463ffffffff16806312065fe014604b578063b69ef8a8146073575b005b348015605657600080fd5b50605d609b565b6040518082815260200191505060405180910390f35b348015607e57600080fd5b50608560a4565b6040518082815260200191505060405180910390f35b60008054905090565b600054815600a165627a7a72305820b52a3992e33dd6ca8a7016ecf5b9d3593e2448283b99bd00f942e9d7bf7046370029",
  "source": "pragma solidity 0.4.24;\n\ncontract Bulbrary {\n    uint public balance;\n\n    constructor() public {\n        balance = 1000;\n    }\n\n    function getBalance() public view returns(uint){\n        return balance;\n    }\n\n    // Fallback function\n    function() external payable {\n        \n    }\n}\n",
  "sourcePath": "/Users/nan-dgt/Desktop/bulbrary/contracts/Bulbrary.sol",
  "compiler": {
    "name": "solc",
    "version": "0.4.24+commit.e67f0147.Emscripten.clang"
  },
  "schemaVersion": "2.0.1",
  "updatedAt": "2018-08-25T08:18:48.440Z"
}